{
  "_format": "hh-sol-artifact-1",
  "contractName": "Proposal",
  "sourceName": "contracts/Proposal.sol",
  "abi": [
    {
      "inputs": [
        {
          "internalType": "string",
          "name": "_title",
          "type": "string"
        },
        {
          "internalType": "string",
          "name": "_description",
          "type": "string"
        }
      ],
      "name": "createProposal",
      "outputs": [],
      "stateMutability": "nonpayable",
      "type": "function"
    },
    {
      "inputs": [],
      "name": "getProposals",
      "outputs": [
        {
          "components": [
            {
              "internalType": "uint256",
              "name": "id",
              "type": "uint256"
            },
            {
              "internalType": "string",
              "name": "title",
              "type": "string"
            },
            {
              "internalType": "string",
              "name": "description",
              "type": "string"
            },
            {
              "internalType": "address",
              "name": "creator",
              "type": "address"
            },
            {
              "internalType": "bool",
              "name": "active",
              "type": "bool"
            }
          ],
          "internalType": "struct Proposal.ProposalDetails[]",
          "name": "",
          "type": "tuple[]"
        }
      ],
      "stateMutability": "view",
      "type": "function"
    },
    {
      "inputs": [],
      "name": "nextProposalId",
      "outputs": [
        {
          "internalType": "uint256",
          "name": "",
          "type": "uint256"
        }
      ],
      "stateMutability": "view",
      "type": "function"
    },
    {
      "inputs": [
        {
          "internalType": "uint256",
          "name": "",
          "type": "uint256"
        }
      ],
      "name": "proposals",
      "outputs": [
        {
          "internalType": "uint256",
          "name": "id",
          "type": "uint256"
        },
        {
          "internalType": "string",
          "name": "title",
          "type": "string"
        },
        {
          "internalType": "string",
          "name": "description",
          "type": "string"
        },
        {
          "internalType": "address",
          "name": "creator",
          "type": "address"
        },
        {
          "internalType": "bool",
          "name": "active",
          "type": "bool"
        }
      ],
      "stateMutability": "view",
      "type": "function"
    }
  ],
  "bytecode": "0x608060405234801561001057600080fd5b50610c76806100206000396000f3fe608060405234801561001057600080fd5b506004361061004c5760003560e01c8063013cf08b146100515780632ab09d141461008557806362564c48146100a357806365e481e2146100c1575b600080fd5b61006b60048036038101906100669190610726565b6100dd565b60405161007c95949392919061095e565b60405180910390f35b61008d610260565b60405161009a9190610943565b60405180910390f35b6100ab610266565b6040516100b89190610921565b60405180910390f35b6100db60048036038101906100d691906106ba565b610464565b005b600081815481106100ed57600080fd5b906000526020600020906004020160009150905080600001549080600101805461011690610b10565b80601f016020809104026020016040519081016040528092919081815260200182805461014290610b10565b801561018f5780601f106101645761010080835404028352916020019161018f565b820191906000526020600020905b81548152906001019060200180831161017257829003601f168201915b5050505050908060020180546101a490610b10565b80601f01602080910402602001604051908101604052809291908181526020018280546101d090610b10565b801561021d5780601f106101f25761010080835404028352916020019161021d565b820191906000526020600020905b81548152906001019060200180831161020057829003601f168201915b5050505050908060030160009054906101000a900473ffffffffffffffffffffffffffffffffffffffff16908060030160149054906101000a900460ff16905085565b60015481565b60606000805480602002602001604051908101604052809291908181526020016000905b8282101561045b57838290600052602060002090600402016040518060a0016040529081600082015481526020016001820180546102c790610b10565b80601f01602080910402602001604051908101604052809291908181526020018280546102f390610b10565b80156103405780601f1061031557610100808354040283529160200191610340565b820191906000526020600020905b81548152906001019060200180831161032357829003601f168201915b5050505050815260200160028201805461035990610b10565b80601f016020809104026020016040519081016040528092919081815260200182805461038590610b10565b80156103d25780601f106103a7576101008083540402835291602001916103d2565b820191906000526020600020905b8154815290600101906020018083116103b557829003601f168201915b505050505081526020016003820160009054906101000a900473ffffffffffffffffffffffffffffffffffffffff1673ffffffffffffffffffffffffffffffffffffffff1673ffffffffffffffffffffffffffffffffffffffff1681526020016003820160149054906101000a900460ff1615151515815250508152602001906001019061028a565b50505050905090565b60006040518060a0016040528060015481526020018481526020018381526020013373ffffffffffffffffffffffffffffffffffffffff1681526020016001151581525090806001815401808255809150506001900390600052602060002090600402016000909190919091506000820151816000015560208201518160010190805190602001906104f792919061059a565b50604082015181600201908051906020019061051492919061059a565b5060608201518160030160006101000a81548173ffffffffffffffffffffffffffffffffffffffff021916908373ffffffffffffffffffffffffffffffffffffffff16021790555060808201518160030160146101000a81548160ff02191690831515021790555050506001600081548092919061059190610b42565b91905055505050565b8280546105a690610b10565b90600052602060002090601f0160209004810192826105c8576000855561060f565b82601f106105e157805160ff191683800117855561060f565b8280016001018555821561060f579182015b8281111561060e5782518255916020019190600101906105f3565b5b50905061061c9190610620565b5090565b5b80821115610639576000816000905550600101610621565b5090565b600061065061064b846109f0565b6109bf565b90508281526020810184848401111561066857600080fd5b610673848285610ace565b509392505050565b600082601f83011261068c57600080fd5b813561069c84826020860161063d565b91505092915050565b6000813590506106b481610c29565b92915050565b600080604083850312156106cd57600080fd5b600083013567ffffffffffffffff8111156106e757600080fd5b6106f38582860161067b565b925050602083013567ffffffffffffffff81111561071057600080fd5b61071c8582860161067b565b9150509250929050565b60006020828403121561073857600080fd5b6000610746848285016106a5565b91505092915050565b600061075b8383610886565b905092915050565b61076c81610a86565b82525050565b61077b81610a86565b82525050565b600061078c82610a30565b6107968185610a53565b9350836020820285016107a885610a20565b8060005b858110156107e457848403895281516107c5858261074f565b94506107d083610a46565b925060208a019950506001810190506107ac565b50829750879550505050505092915050565b6107ff81610a98565b82525050565b61080e81610a98565b82525050565b600061081f82610a3b565b6108298185610a64565b9350610839818560208601610add565b61084281610c18565b840191505092915050565b600061085882610a3b565b6108628185610a75565b9350610872818560208601610add565b61087b81610c18565b840191505092915050565b600060a08301600083015161089e6000860182610903565b50602083015184820360208601526108b68282610814565b915050604083015184820360408601526108d08282610814565b91505060608301516108e56060860182610763565b5060808301516108f860808601826107f6565b508091505092915050565b61090c81610ac4565b82525050565b61091b81610ac4565b82525050565b6000602082019050818103600083015261093b8184610781565b905092915050565b60006020820190506109586000830184610912565b92915050565b600060a0820190506109736000830188610912565b8181036020830152610985818761084d565b90508181036040830152610999818661084d565b90506109a86060830185610772565b6109b56080830184610805565b9695505050505050565b6000604051905081810181811067ffffffffffffffff821117156109e6576109e5610be9565b5b8060405250919050565b600067ffffffffffffffff821115610a0b57610a0a610be9565b5b601f19601f8301169050602081019050919050565b6000819050602082019050919050565b600081519050919050565b600081519050919050565b6000602082019050919050565b600082825260208201905092915050565b600082825260208201905092915050565b600082825260208201905092915050565b6000610a9182610aa4565b9050919050565b60008115159050919050565b600073ffffffffffffffffffffffffffffffffffffffff82169050919050565b6000819050919050565b82818337600083830152505050565b60005b83811015610afb578082015181840152602081019050610ae0565b83811115610b0a576000848401525b50505050565b60006002820490506001821680610b2857607f821691505b60208210811415610b3c57610b3b610bba565b5b50919050565b6000610b4d82610ac4565b91507fffffffffffffffffffffffffffffffffffffffffffffffffffffffffffffffff821415610b8057610b7f610b8b565b5b600182019050919050565b7f4e487b7100000000000000000000000000000000000000000000000000000000600052601160045260246000fd5b7f4e487b7100000000000000000000000000000000000000000000000000000000600052602260045260246000fd5b7f4e487b7100000000000000000000000000000000000000000000000000000000600052604160045260246000fd5b6000601f19601f8301169050919050565b610c3281610ac4565b8114610c3d57600080fd5b5056fea26469706673582212207e235a7747de95173b2042f46a8bc9bdb642e95089f60fbb3910235948e87d8764736f6c63430008000033",
  "linkReferences": {},
  "deployedLinkReferences": {}
}