{
  "_format": "hh-sol-artifact-1",
  "contractName": "Voting",
  "sourceName": "contracts/Voting.sol",
  "abi": [
    {
      "inputs": [
        {
          "internalType": "string",
          "name": "_title",
          "type": "string"
        },
        {
          "internalType": "string",
          "name": "_description",
          "type": "string"
        }
      ],
      "name": "createProposal",
      "outputs": [],
      "stateMutability": "nonpayable",
      "type": "function"
    },
    {
      "inputs": [],
      "name": "getProposals",
      "outputs": [
        {
          "components": [
            {
              "internalType": "uint256",
              "name": "id",
              "type": "uint256"
            },
            {
              "internalType": "string",
              "name": "title",
              "type": "string"
            },
            {
              "internalType": "string",
              "name": "description",
              "type": "string"
            },
            {
              "internalType": "uint256",
              "name": "voteCount",
              "type": "uint256"
            },
            {
              "internalType": "address",
              "name": "proposer",
              "type": "address"
            }
          ],
          "internalType": "struct Voting.Proposal[]",
          "name": "",
          "type": "tuple[]"
        }
      ],
      "stateMutability": "view",
      "type": "function"
    },
    {
      "inputs": [
        {
          "internalType": "address",
          "name": "",
          "type": "address"
        }
      ],
      "name": "hasVoted",
      "outputs": [
        {
          "internalType": "bool",
          "name": "",
          "type": "bool"
        }
      ],
      "stateMutability": "view",
      "type": "function"
    },
    {
      "inputs": [],
      "name": "nextProposalId",
      "outputs": [
        {
          "internalType": "uint256",
          "name": "",
          "type": "uint256"
        }
      ],
      "stateMutability": "view",
      "type": "function"
    },
    {
      "inputs": [
        {
          "internalType": "uint256",
          "name": "",
          "type": "uint256"
        }
      ],
      "name": "proposals",
      "outputs": [
        {
          "internalType": "uint256",
          "name": "id",
          "type": "uint256"
        },
        {
          "internalType": "string",
          "name": "title",
          "type": "string"
        },
        {
          "internalType": "string",
          "name": "description",
          "type": "string"
        },
        {
          "internalType": "uint256",
          "name": "voteCount",
          "type": "uint256"
        },
        {
          "internalType": "address",
          "name": "proposer",
          "type": "address"
        }
      ],
      "stateMutability": "view",
      "type": "function"
    },
    {
      "inputs": [
        {
          "internalType": "uint256",
          "name": "_proposalId",
          "type": "uint256"
        }
      ],
      "name": "vote",
      "outputs": [],
      "stateMutability": "nonpayable",
      "type": "function"
    }
  ],
  "bytecode": "0x608060405234801561001057600080fd5b50610f75806100206000396000f3fe608060405234801561001057600080fd5b50600436106100625760003560e01c80630121b93f14610067578063013cf08b1461008357806309eef43e146100b75780632ab09d14146100e757806362564c481461010557806365e481e214610123575b600080fd5b610081600480360381019061007c9190610942565b61013f565b005b61009d60048036038101906100989190610942565b6102d1565b6040516100ae959493929190610c46565b60405180910390f35b6100d160048036038101906100cc91906108ad565b610447565b6040516100de9190610bd0565b60405180910390f35b6100ef610467565b6040516100fc9190610c2b565b60405180910390f35b61010d61046d565b60405161011a9190610bae565b60405180910390f35b61013d600480360381019061013891906108d6565b61065a565b005b600260003373ffffffffffffffffffffffffffffffffffffffff1673ffffffffffffffffffffffffffffffffffffffff16815260200190815260200160002060009054906101000a900460ff16156101cc576040517f08c379a00000000000000000000000000000000000000000000000000000000081526004016101c390610beb565b60405180910390fd5b6001548110610210576040517f08c379a000000000000000000000000000000000000000000000000000000000815260040161020790610c0b565b60405180910390fd5b600080828154811061024b577f4e487b7100000000000000000000000000000000000000000000000000000000600052603260045260246000fd5b9060005260206000209060050201905080600301600081548092919061027090610e2a565b91905055506001600260003373ffffffffffffffffffffffffffffffffffffffff1673ffffffffffffffffffffffffffffffffffffffff16815260200190815260200160002060006101000a81548160ff0219169083151502179055505050565b600081815481106102e157600080fd5b906000526020600020906005020160009150905080600001549080600101805461030a90610df8565b80601f016020809104026020016040519081016040528092919081815260200182805461033690610df8565b80156103835780601f1061035857610100808354040283529160200191610383565b820191906000526020600020905b81548152906001019060200180831161036657829003601f168201915b50505050509080600201805461039890610df8565b80601f01602080910402602001604051908101604052809291908181526020018280546103c490610df8565b80156104115780601f106103e657610100808354040283529160200191610411565b820191906000526020600020905b8154815290600101906020018083116103f457829003601f168201915b5050505050908060030154908060040160009054906101000a900473ffffffffffffffffffffffffffffffffffffffff16905085565b60026020528060005260406000206000915054906101000a900460ff1681565b60015481565b60606000805480602002602001604051908101604052809291908181526020016000905b8282101561065157838290600052602060002090600502016040518060a0016040529081600082015481526020016001820180546104ce90610df8565b80601f01602080910402602001604051908101604052809291908181526020018280546104fa90610df8565b80156105475780601f1061051c57610100808354040283529160200191610547565b820191906000526020600020905b81548152906001019060200180831161052a57829003601f168201915b5050505050815260200160028201805461056090610df8565b80601f016020809104026020016040519081016040528092919081815260200182805461058c90610df8565b80156105d95780601f106105ae576101008083540402835291602001916105d9565b820191906000526020600020905b8154815290600101906020018083116105bc57829003601f168201915b50505050508152602001600382015481526020016004820160009054906101000a900473ffffffffffffffffffffffffffffffffffffffff1673ffffffffffffffffffffffffffffffffffffffff1673ffffffffffffffffffffffffffffffffffffffff168152505081526020019060010190610491565b50505050905090565b60006040518060a001604052806001548152602001848152602001838152602001600081526020013373ffffffffffffffffffffffffffffffffffffffff1681525090806001815401808255809150506001900390600052602060002090600502016000909190919091506000820151816000015560208201518160010190805190602001906106eb929190610778565b506040820151816002019080519060200190610708929190610778565b506060820151816003015560808201518160040160006101000a81548173ffffffffffffffffffffffffffffffffffffffff021916908373ffffffffffffffffffffffffffffffffffffffff16021790555050506001600081548092919061076f90610e2a565b91905055505050565b82805461078490610df8565b90600052602060002090601f0160209004810192826107a657600085556107ed565b82601f106107bf57805160ff19168380011785556107ed565b828001600101855582156107ed579182015b828111156107ec5782518255916020019190600101906107d1565b5b5090506107fa91906107fe565b5090565b5b808211156108175760008160009055506001016107ff565b5090565b600061082e61082984610cd8565b610ca7565b90508281526020810184848401111561084657600080fd5b610851848285610db6565b509392505050565b60008135905061086881610f11565b92915050565b600082601f83011261087f57600080fd5b813561088f84826020860161081b565b91505092915050565b6000813590506108a781610f28565b92915050565b6000602082840312156108bf57600080fd5b60006108cd84828501610859565b91505092915050565b600080604083850312156108e957600080fd5b600083013567ffffffffffffffff81111561090357600080fd5b61090f8582860161086e565b925050602083013567ffffffffffffffff81111561092c57600080fd5b6109388582860161086e565b9150509250929050565b60006020828403121561095457600080fd5b600061096284828501610898565b91505092915050565b60006109778383610b13565b905092915050565b61098881610d6e565b82525050565b61099781610d6e565b82525050565b60006109a882610d18565b6109b28185610d3b565b9350836020820285016109c485610d08565b8060005b85811015610a0057848403895281516109e1858261096b565b94506109ec83610d2e565b925060208a019950506001810190506109c8565b50829750879550505050505092915050565b610a1b81610d80565b82525050565b6000610a2c82610d23565b610a368185610d4c565b9350610a46818560208601610dc5565b610a4f81610f00565b840191505092915050565b6000610a6582610d23565b610a6f8185610d5d565b9350610a7f818560208601610dc5565b610a8881610f00565b840191505092915050565b6000610aa0601783610d5d565b91507f596f75206861766520616c726561647920766f7465642e0000000000000000006000830152602082019050919050565b6000610ae0601483610d5d565b91507f496e76616c69642070726f706f73616c2049442e0000000000000000000000006000830152602082019050919050565b600060a083016000830151610b2b6000860182610b90565b5060208301518482036020860152610b438282610a21565b91505060408301518482036040860152610b5d8282610a21565b9150506060830151610b726060860182610b90565b506080830151610b85608086018261097f565b508091505092915050565b610b9981610dac565b82525050565b610ba881610dac565b82525050565b60006020820190508181036000830152610bc8818461099d565b905092915050565b6000602082019050610be56000830184610a12565b92915050565b60006020820190508181036000830152610c0481610a93565b9050919050565b60006020820190508181036000830152610c2481610ad3565b9050919050565b6000602082019050610c406000830184610b9f565b92915050565b600060a082019050610c5b6000830188610b9f565b8181036020830152610c6d8187610a5a565b90508181036040830152610c818186610a5a565b9050610c906060830185610b9f565b610c9d608083018461098e565b9695505050505050565b6000604051905081810181811067ffffffffffffffff82111715610cce57610ccd610ed1565b5b8060405250919050565b600067ffffffffffffffff821115610cf357610cf2610ed1565b5b601f19601f8301169050602081019050919050565b6000819050602082019050919050565b600081519050919050565b600081519050919050565b6000602082019050919050565b600082825260208201905092915050565b600082825260208201905092915050565b600082825260208201905092915050565b6000610d7982610d8c565b9050919050565b60008115159050919050565b600073ffffffffffffffffffffffffffffffffffffffff82169050919050565b6000819050919050565b82818337600083830152505050565b60005b83811015610de3578082015181840152602081019050610dc8565b83811115610df2576000848401525b50505050565b60006002820490506001821680610e1057607f821691505b60208210811415610e2457610e23610ea2565b5b50919050565b6000610e3582610dac565b91507fffffffffffffffffffffffffffffffffffffffffffffffffffffffffffffffff821415610e6857610e67610e73565b5b600182019050919050565b7f4e487b7100000000000000000000000000000000000000000000000000000000600052601160045260246000fd5b7f4e487b7100000000000000000000000000000000000000000000000000000000600052602260045260246000fd5b7f4e487b7100000000000000000000000000000000000000000000000000000000600052604160045260246000fd5b6000601f19601f8301169050919050565b610f1a81610d6e565b8114610f2557600080fd5b50565b610f3181610dac565b8114610f3c57600080fd5b5056fea26469706673582212202394ea9787e806d219af0c8863601ccd75877038398b4e4d1eb13e89ed2f490e64736f6c63430008000033",
  "linkReferences": {},
  "deployedLinkReferences": {}
}